:020000040800F2
:1000000078320020B9020008492A000801240008BB
:10001000392900082D1F00089F7F000800000000FC
:100020000000000000000000000000000171000856
:10003000D51F0008000000005F19000815720008B5
:10004000D3020008D3020008D3020008596E00084A
:10005000D3020008D3020008D3020008D30200082C
:10006000D3020008D3020008D3020008D30200081C
:10007000D3020008D3020008D3020008D30200080C
:10008000D3020008D3020008D3020008D3020008FC
:10009000D3020008D3020008D3020008D3020008EC
:1000A000D3020008D3020008D3020008D3020008DC
:1000B000D1740008E974000801750008D302000833
:1000C000D3020008D3020008D3020008D3020008BC
:1000D000D3020008D3020008797C0008D17C000814
:1000E000D3020008D3020008D3020008D30200089C
:1000F000D3020008D3020008D3020008D30200088C
:10010000D3020008D3020008D3020008D30200087B
:10011000D3020008D302000819750008D3020008B2
:10012000D3020008D3020008D3020008D30200085B
:1001300000F002F800F0B0F80AA090E8000C824449
:100140008344AAF10107DA4501D100F0A5F8AFF226
:10015000090EBAE80F0013F0010F18BFFB1A43F0A5
:100160000103184744970000649700000A444FF0C9
:10017000000C10F8013B13F0070408BF10F8014B06
:100180001D1108BF10F8015B641E05D010F8016B4B
:10019000641E01F8016BF9D113F0080F1EBF10F8AF
:1001A000014BAD1C0C1B09D16D1E58BF01F801CBD2
:1001B000FAD505E014F8016B01F8016B6D1EF9D555
:1001C0009142D6D37047000000230024002500266A
:1001D000103A28BF78C1FBD8520728BF30C148BFAA
:1001E0000B6070476E2900F09F82702900F0F38346
:1001F000662909F0D681652909F0D381672909F0BC
:10020000D0816129AFF3008003681B0A28BF41F049
:100210008001692900F0AA80642900F0A78075296F
:1002200000F0A4806F2900F08083782900F0BF835C
:10023000E92900F01B83E42900F01883F52900F078
:100240001583EF2900F07D83F82900F0BE83036851
:10025000DB0928BF41F08001632900F0258673295E
:1002600000F02A86E32900F03586F32900F03A866B
:10027000002070471FB500F08BFE04000020002115
:1002800008F09EFA401C60600020002108F082FA0D
:10029000E0601FBD10B510BD00F04CFE1146FFF729
:1002A000E9FF07F0A7FF00F029FF03B4FFF7F2FF13
:1002B00003BC07F091FE0000094880470948004749
:1002C000FEE7FEE7FEE7FEE7FEE7FEE7FEE7FEE706
:1002D000FEE7FEE704480549054A064B7047000063
:1002E0003172000831010008782C0020783200209B
:1002F000782E0020782E002072B6704762B67047C4
:10030000EFF3108072B6704780F31088704730BFEB
:10031000704720BF7047B0FA80F0704790FAA0F0A5
:10032000B0FA80F0704790FAA0F070477047000074
:100330001CB50C46064B7B4469460090204600F0F5
:100340000CFA04460020694600F01AFA20461CBD4B
:10035000470400000FB4044910B503AA029800F046
:1003600015FA10BC5DF814FB500000202DE9F04197
:100370000646002410687529314616A510D000F0F5
:100380003FF9002802DA404213A507E031688A07E6
:1003900001D512A502E0490704D511A5012401E009
:1003A00000F037F900210A2206F1240709E0B0FB2A
:1003B000F2FCB0FBF2F302FB1C003030785418461C
:1003C000491C0028F3D123462A463046BDE8F041B7
:1003D00000F051B9000000002D0000002B000000CB
:1003E000200000002DE9F05F894604464FF0000A26
:1003F000DFF874B1FB44C0F820A02046E1688847CC
:10040000002874D0252806D0D4E901219047206A1D
:10041000401C2062F1E700265F462046E1688847DD
:100420002028054607DB312D05D2781910F8200C5D
:1004300008B10643F1E7B00701D526F00406C4F879
:100440001CA00027C4F818A02A2D09D0284607F0C0
:10045000BCFD38B304EB8708303DC8F8185019E0EC
:1004600059F8041B204604EB87029161E168884734
:10047000012F054618D1E069002820DA26F0200671
:100480001DE0D8F8180000EB800005EB4000303884
:10049000C8F818002046E1688847054607F095FD32
:1004A0000028EED1012F0AD02E2D08D12046E16878
:1004B00088477F1C0546022F46F02006C4DBA06952
:1004C000002803DA404246F00106A061F00701D09F
:1004D00026F010066C2D0BD0682D09D04C2D39D08C
:1004E0006A2D35D0742D35D07A2D33D016E038E012
:1004F000E1682F4620468847B842054609D16C2F4F
:1005000026D04FF48060E1680643204688470546C0
:1005100004E06C2F1AD04FF4807006430DB3A5F1A0
:100520004100192802D8203546F400664A4629467B
:10053000204626604E46FFF755FE80B101280BD0BD
:10054000F61D26F0070000F1080956E74020E4E711
:100550008020D8E70020D6E706F104094DE72846B9
:1005600052E7206ABDE8F09FD893000010B5431C05
:1005700002E010F8011B71B18107FAD14FF001328E
:1005800002C88C1A8C4314EAC211F9D0C01A0A06A8
:1005900003D0C01E10BDC01A10BD0A0401D0801EB9
:1005A00010BD0902FCD0401E10BD70477047704757
:1005B000704770B5044685690068C10601D53026CC
:1005C00000E02026C00707D070BDD4E901213046E5
:1005D0009047206A401C20626D1EF6D570BD70B534
:1005E000044685690078C00707D170BDD4E90121B0
:1005F00020209047206A401C20626D1EF6D570BDF9
:1006000009684A0501D540B27047C905FCD500B25A
:10061000704709684A0501D5C0B27047C905FCD5C5
:1006200080B2704770B50C460546012A05D028787F
:10063000800600D5EA69002302E0012305E05B1C87
:10064000934202D2E05C0028F9D1A869E618C01AEA
:10065000A861286A184428622846FFF7AAFF04E028
:10066000D5E9012114F8010B9047B442F8D328468C
:10067000FFF7B5FF70BD2DE9F0470D46994692464C
:10068000044600F124080168880604D5E06921F0D9
:100690001001216000E00120A84201DD471B00E0BD
:1006A0000027A1697A1902EB0900081AA0612078D5
:1006B000C00602D42046FFF77CFF002608E0D4E9FC
:1006C00001211AF806009047206A401C761C20621F
:1006D0004E45F4DB2078C0060AD52046FFF769FFB7
:1006E00006E0D4E9012130209047206A401C2062B6
:1006F000381EA7F10107F4DC07E0D4E9012118F85E
:1007000005009047206A401C2062281EA5F10105C3
:10071000F3DC2046FFF763FF2078000602D50220B5
:10072000BDE8F0870120FBE711680268006A530505
:1007300001D508700AE0D30501D5088006E013064C
:1007400003D5C217C1E9000200E00860012070472C
:1007500001694A1C02610878704700B58FB0CDE985
:1007600001310021059105497944CDE90310114675
:100770006846FFF737FE0FB000BD0000E5FFFFFF42
:100780000A6802F8010B0A6070470000074B70B559
:100790000D467B44FFF7E1FF0446284600F0A6FB28
:1007A00010B14FF0FF3070BD204670BD437A00009D
:1007B0002DE9FF5F15468A460446DFF8AC80F84411
:1007C0000027D8E900103E46CDE9001010E03AF8C5
:1007D00016106A4602A800F08DFB411C07D0217854
:1007E000890603D5E269391891420DD80744761C71
:1007F0002078800602D5E069B84205DDAE42E6DB2E
:100800003AF816000028E2D1A069C01BA06120467A
:10081000FFF7CFFED8E90010CDE90010002017E067
:100820003AF818106A4602A800F064FBB0F1FF3FE6
:1008300081460BD000250DF1080B05E0D4E901211C
:100840001BF8050090476D1C4D45F7D308F10100DA
:10085000B0428046E4DB206A384420622046FFF73D
:10086000BEFEBDE8FF9F0000229000002DE9F04190
:100870008046D21D22F007020025D2E90002F529A8
:1008800015A614D0011E72F1000106DA0023D0EB88
:10089000030063EB020211A608E0D8F800108B07F2
:1008A00001D50FA602E0490701D50EA60125114684
:1008B000002408F1240704E000F098F830323A559B
:1008C000641C50EA0102F7D12B46324621464046CD
:1008D000BDE8F041FFF7CFBE000000002D00000092
:1008E0002B0000002000000030B4002100F124049F
:1008F00008E002F00705D208303542EA4372DB080F
:100900006554491C52EA0305F3D10468002310A280
:10091000250707D5A40600D421B1C46901230DA27F
:10092000641EC46130BCFFF7A6BE10B50446214664
:100930001068FFF76EFE02462046BDE81040002317
:10094000D2E7D21D22F00701D1E90023CCE7000055
:100950000000000030000000F0B40D4601880905D9
:1009600002D5214C7C4402E01F4C7C440E34002113
:1009700000F1240608E002F00F071209E75D42EAE1
:1009800003721B097754491C52EA0307F3D102781A
:100990000023120704D5702D06D009B102231134AB
:1009A0002246F0BCFFF767BE01231034F8E770B5AC
:1009B00004460D4621461068FFF72BFE02462946E5
:1009C0002046BDE870400023C6E7D21D22F0070391
:1009D000D3E90023C0E70368126843F020030360F3
:1009E0000823C3610023B7E7848E000030B5B0F15F
:1009F0000A024FEA900E71F100034EEA817EB0EBDD
:100A00000E0061EB91014FEA101E4EEA017E10EBE1
:100A10000E0041EB11114FEA102E4EEA016E10EB61
:100A20000E0041EB11214FEA104E4EEA014E10EB41
:100A30000E0041EB1141401841F100014FEAD00096
:100A400040EA41704FEAD10110EB80054FEA810482
:100A500044EA907444EB01046D1944EB0404521B06
:100A6000A3414FF0000348BF0A3200D530BD401CFF
:100A700041F1000130BD70472DE9FF4F0C461E4685
:100A80004FF0FF378BB0D2E90001DDF860800A90AB
:100A90008A46C1F30A5505B93D46002108464FF084
:100AA0000000BAF1000F00F4400005DA00EB80000E
:100AB0004FF4400101EA50004FEA9059B9F1010F9B
:100AC00000DDB9460A9850EA4A000ED044F61050AC
:100AD000A5F2FF3545432F14B8F1000F1ED0754223
:100AE000291E1EDDC9F100021CE0B8F1010F4FF014
:100AF000000001D0302103E0F24305E02154401C06
:100B0000B042FBDB30460022002121540B99C1F892
:100B10000880C1E900200FB0BDE8F08FBD1B6D1C3F
:100B2000DEE74A4600DA694206A800F075FA06AB2D
:100B300093E8070003AB83E8070050460A9900F0EA
:100B40002BFB8DE80700A0F500501F38009003989C
:100B5000002D0ADD42F21F014A460844002303A982
:100B60000390684600F094FD09E0A0F500504A4665
:100B70001F38002303A90390684600F09EFD8DE80E
:100B800007000004000C03D04FF0FF30410800E0E4
:100B90001046B8F1000F03D00022009215461EE067
:100BA000751E05D4FFF722FF303262556D1EF9D550
:100BB000B3460122084302D000227F1C04E02078C3
:100BC000302801D100227F1E002A099784D01DE021
:100BD000112D07DAFFF70AFF303262556D1C50EA1B
:100BE0000102F5D1084302D00098C8B10EE00021FF
:100BF000681E05E0235C625C63542254401E491C5D
:100C00008142F7DBAB46A81B401E0990002004F888
:100C10000B000B98099AC0F80880C0E9002B7AE70E
:100C200011264FF0000857E72DE9F04F884604469B
:100C3000D21D22F0070191B0D1E90001CDE90A01EE
:100C400007F0AFF902460B98C00F01D02D2007E046
:100C50002068810701D52B2002E0202101EAC00095
:100C6000032A099001D0072A05DB034641462046A6
:100C700000F092F90BE12078800601D5E06900E0F0
:100C80000620B8F1650F814606D0B8F1660F18D07E
:100C9000B8F1670F70D131E00020B9F1110F009069
:100CA00001DB112301E009F101030AAA01A90CA843
:100CB000FFF7E2FEDDE90C70002609F1010583462D
:100CC00047E001204B4600904FF000470AAA01A9D7
:100CD0000CA8FFF7D1FEDDE90DB00C995D460026AA
:100CE00010B909F101000D18B9EB050003D4C0F1EA
:100CF000FF3609F10105A5EB09002BE0B9F1010F61
:100D000001DA4FF001090020B9F1110F00904846B7
:100D100001DD112300E003460AAA01A90CA8FFF790
:100D2000ABFEDDE90C704D460026834620780007B7
:100D30000AD4AB4500DA5D4601A8012D04DD411956
:100D400011F8011C302907D04F4502DA17F1040FC2
:100D500004DA012082460FE06D1EEEE7002F02DC70
:100D6000ED1B3E4403E0781CA84200DD7D1CB81B4F
:100D700000F1010A4FF000472078000703D4AA458C
:100D800001DB4FF0FF3A0021B7F1004F0DF14308AE
:100D90008DF8431024D002202B23002F01DA7F424C
:100DA0002D230A21021EA0F1010000DC5FB197FB98
:100DB000F1FC97FBF1F201FB1C7C17460CF1300CA7
:100DC00008F801CDEEE7A8F10100037021880905BC
:100DD00001D5452100E06521A0F1010800F8011CC2
:100DE00009980FA9A1EB0807FF1D00B101204119C7
:100DF00001EBEA70A1693844081A401EA06120780E
:100E0000C00602D42046FFF7D4FB099828B1D4E9E4
:100E100001219047206A401C20622078C00622D51C
:100E20002046FFF7C6FB1EE0002E04DBB34502DDC3
:100E300001A8805D00E03020D4E901219047206ABC
:100E4000401C2062761CAAF101005FEA000A0AD168
:100E500000F09EF8C0680168405CD4E90121904729
:100E6000206A401C2062281EA5F10105DCDC07E099
:100E7000D4E9012118F8010B9047206A401C206238
:100E8000381EA7F10107F3DC2046FFF7A8FB03207B
:100E900011B041E610B5436913B1AFF3008001E032
:100EA000FFF7C0FB012010BD127800F124010A7089
:100EB00000224A700122EDE711684FF0FF32E9E7A6
:100EC00010B5436913B1AFF3008001E0FFF770FC88
:100ED000012010BD128800F1240182840022C28406
:100EE0000122EDE711684FF0FF32E9E7007B00F0E7
:100EF0008000704770B516460C46054600F040F875
:100F0000036893F80101012806D0FF2C0FD8185D63
:100F100068B101202C7070BDD3F80701324621461C
:100F200003F2071303442846BDE8704018474FF00A
:100F3000FF3070BD754600F0EBF8AE46050069461F
:100F4000534620F00700854618B020B5FFF7C2F9D8
:100F5000BDE820404FF000064FF000074FF00008BA
:100F60004FF0000B21F00701AC46ACE8C009ACE83B
:100F7000C009ACE8C009ACE8C0098D467047000064
:100F800010B500F005F8001D10BD00BF3578000059
:100F900000487047382C00202DE9F0411F460446D8
:100FA00003260168072A01F4006004DB08B116A5D6
:100FB00005E016A503E008B115A500E015A521F090
:100FC00010002060A069C01EA0610FB1401EA0618A
:100FD0002046FFF7EEFA4FB1D4E901213846904799
:100FE000206A401C2062C01C206206E0206AFAE7EA
:100FF000D4E9012115F8010B9047761EF8D220465E
:10100000FFF7EDFABDE8F0814E414E006E616E00D3
:10101000494E4600696E66002DE9F0478146164646
:101020008AB0354878440DC88DE80D0032487844C0
:10103000801C03AC0DC884E80D0041F69B300844C9
:10104000372190FBF1F290FBF1F5A5F1800501FB52
:1010500012041B3C02D56442012000E00020DFF8AE
:1010600098A080460027FA44AAF1BE0A0EE0E007E5
:101070000AD03246684607EB470101230AEB81019B
:1010800000F01BFB8DE8070064107F1C002CEED1E4
:10109000194F7F44AE3F19E0E80715D007EB041065
:1010A0000DF1180A90E80E008AE80E00C068F042C0
:1010B00001D1981908903246012306A903A800F02F
:1010C000FCFA03AB83E807006D10641C002DE3D12C
:1010D0004FF0010332466946B8F1000F03A802D071
:1010E00000F0D6FA01E000F0E8FAC9E90001C9F819
:1010F00008200AB0BDE8F0876888000010B50446F3
:10110000AFF300802046BDE81040FFF7CEB80000E6
:1011100000487047182C00204FF0013C50F8042B79
:1011200051F8043B9A4221D1A2EB0C03934313EAFA
:10113000CC1317D150F8042B51F8043B9A4215D127
:10114000A2EB0C03934313EACC130BD150F8042BFE
:1011500051F8043B9A4209D1A2EB0C03934313EAE2
:10116000CC13DBD04FF00000704700BFD01A01BA9B
:10117000B1FA81F101F0180122FA01F0CB40C1F17E
:101180002001DBB2C0B2C01A2CFA01F3D11A91438C
:1011900011EAC311E6D170475FEA400C08BF91F035
:1011A000000F4FEA8C234FEAC12243EA51514FEA24
:1011B0001C5018BF00F5F0404FEA300018BF41F056
:1011C00000415FEA6C5C00F02980BCF1FF3F08BF82
:1011D00040F080407047130C06BF12044FF0100C13
:1011E0004FF0000C130E04BF12020CF1080C130F89
:1011F00004BF12010CF1040C930F04BF92000CF118
:10120000020CD30F04BF52000CF1010C11464FF039
:101210000002A0F11F00A0EB0C00704711F0004F7E
:1012200008BF704731F000413FF4D5AF0B0C06BF4B
:1012300009044FF0100C4FF0000C0B0E04BF090214
:101240000CF1080C0B0F04BF09010CF1040C8B0FFF
:1012500004BF89000CF1020CCB0F04BF49000CF154
:10126000010CCCF12003A0EB0C0022FA03F302FAEC
:101270000CF241EA030100F10100704720F07F4CBD
:1012800080EA030023F07F47ACEB070303F57C53B0
:1012900000F0004003F1FF032DE980494FEA154BB0
:1012A00009B44FEA144325EA0B4E24EA03480FF22F
:1012B000042606EB132749083E785FEA320203FB57
:1012C0000667C7F5000707FB06F64FEA54374FEAF3
:1012D000D64606F1020607FB066CCCF1005C4FEA2D
:1012E0001C472CEA074C07FB06F40CFB06F504EB45
:1012F00015464FEA961634BF00204FF000404FEAE3
:10130000D13706FB07FC4FEA1C4C0CFB0BF7D21B3A
:1013100003FB0CF761EB07010CFB0EF7B0EB07408A
:1013200072EB17420CFB08F734BFA2EB0742B2EB9B
:10133000074261EB17414FEA0C444FEA910706FB65
:1013400007FC4FEA1C4C0CFB0BF7B0EBC74072EBF1
:10135000573203FB0CF734BFA2EBC742B2EBC742D4
:1013600061EB57310CFB0EF7B0EBC70072EB577215
:101370000CFB08F734BFA2EBC702B2EBC70261EB6C
:101380005771039F4FEA816141EA921104EBCC044B
:101390004FEAD1374FEA826206FB07FC42EA90121D
:1013A0004FEA80604FEA1C4C0CFB0BF7D21B03FB8F
:1013B0000CF761EB07010CFB0EF7B0EB074072EB8B
:1013C00017420CFB08F734BFA2EB0742B2EB07420F
:1013D00061EB17414FEA8C554FEA910704EB9C24CF
:1013E00006FB07FC4FEA1C4C0CFB0BF7B0EBC740AD
:1013F00072EB573203FB0CF734BFA2EBC742B2EBE0
:10140000C74261EB57310CFB0EF7B0EBC70072EB34
:1014100057720CFB08F734BFA2EBC702B2EBC7024E
:1014200061EB577115EB4C254FEA816141EA92114E
:101430004FEA82624FEAD13742EA901206FB07FC7C
:1014400044F100044FEA80604FEA1C4C0CFB0BF7A0
:10145000D21B03FB0CF761EB07010CFB0EF7B0EBA3
:10146000074072EB17420CFB08F734BFA2EB0742B0
:10147000B2EB074261EB174115EB1C154FEA8131C6
:1014800041EA92414FEA823242EA90424FEA80308A
:101490004FEA0C7644F1000448EA03434EEA0B4855
:1014A0004FF0000EB2EB080C71EB030724BF62464D
:1014B00039464EEB0E0E4FF0000B001852414941D9
:1014C0004BEB0B0BB2EB080C71EB03077BF1000B42
:1014D00024BF624639464EEB0E0E4FF0000B00184B
:1014E000524149414BEB0B0BB2EB080C71EB03077C
:1014F0007BF1000B24BF624639464EEB0E0E51EADB
:10150000020718BF46F0010616EB0E7655F10002F1
:1015100054F1000103D5BDE88901BDE80088BDE8AC
:101520008901BDE80048B619524141EB0101A3F120
:101530000103704780807F7E7D7C7B7A7978777627
:1015400076757473727171706F6E6E6D6C6C6B6AA0
:101550006A6968686766666564646363626161603E
:10156000605F5F5E5E5D5D5C5C5B5B5A5A595958BB
:101570005857575656555555545453535252525125
:10158000515050504F4F4F4E4E4D4D4D4C4C4C4B7B
:101590004B4B4A4A4A4949494848484747474746C2
:1015A00046464545454444444443434343424242FE
:1015B00042414141002B9C4630D477002BD01CB5D2
:1015C0004FEA370703B44FF010004FF01001BAF1A3
:1015D000000F06D0BCF1000FDCBF40F0080040F067
:1015E00008014FF000000FBCBDE810400BF1010BEB
:1015F000BBF1010F08BF5FEA170722BF12F101021A
:1016000011F101014FF0004143F1000300F00040EF
:1016100043EA00007047F9D35708D0E746EA064688
:1016200013F1400F4FEA16461FDD13F1200FDFBF05
:1016300016430A46002120335B42BED0C3F1200787
:1016400046EA064602FA07F74FEA164646EA070652
:10165000C3F1200722FA03F201FA07F721FA03F196
:101660004FF0000342EA0702A7E746EA020646EA0D
:1016700006464FEA164646EA0106BCBF46EA06465B
:10168000360C4FF000034FF000024FF0000194E7DA
:101690002DE9804C9A46934670B491E8380007C80B
:1016A00031EA400C48BF34EA430C03D5FFF7E6FDAE
:1016B000FFF780FFF0BCBDE8008C2DE9804C9A4616
:1016C000934670B491E8380007C810F0804F08BF07
:1016D00013F0804F03D100F005F8FFF76BFFF0BC6B
:1016E000BDE8008C20F07F4780EA030023F07F4CA8
:1016F00007EB0C03A3F57C5300F00040A3F1FE03BD
:1017000092F0000F00F0B38095F0000F00F07780AA
:101710002DE901494FEA11404FEA144621EA0048F9
:1017200000FB06FC24EA064708FB06F607FB08F860
:1017300000FB07F718EB06484CEB164C4FEA124B30
:1017400018EB07484FEA15464CEB174022EA0B4EC0
:101750000BFB06FC25EA06470EFB06F607FB0EFE12
:101760000BFB07F71EEB064E4CEB164C4FF000063A
:101770001EEB074E4CEB174B18EB0B0840F100002B
:1017800018EB0E0B58EB000840F100008F1A4FF0D9
:1017900000013CBFC943661B14BFB5EB040C00211C
:1017A0003CBFC943F61B4FEA17444EEA8E0E27EAA8
:1017B00004454FEA1C4704FB07622CEA074C05FB73
:1017C00007F70CFB05F604FB0CFC16EB074642EB97
:1017D000174216EB0C4642EB1C421BEB060658EB7D
:1017E0000202414146EA9E0601D5BDE80189B619CB
:1017F000524141EB0101A3F10103BDE801894FEA28
:1018000014454FEA114724EA054621EA074C05FB37
:1018100007F406FB07F70CFB06F105FB0CFC11EBCC
:10182000074144EB17444FEA124711EB0C4144EBDC
:101830001C4422EA074C05FB07F206FB07F70CFBEA
:1018400006F605FB0CFC16EB074642EB174216EBBF
:101850000C4642EB1C456A1854F1000148BF704722
:10186000B619524141EB0101A3F10103704795F014
:10187000000F37D04FEA11424FEA144721EA0246DF
:1018800024EA074C02FB07F106FB07F70CFB06F402
:1018900002FB0CFC14EB074441EB17414FEA1547E0
:1018A00014EB0C4441EB1C4125EA074C02FB07F505
:1018B00006FB07F70CFB06F602FB0CFC16EB0746D3
:1018C00045EB174516EB0C4645EB1C42121951F13E
:1018D000000148BF7047B619524141EB0101A3F125
:1018E000010370474FEA14454FEA114724EA0546C1
:1018F00021EA074C05FB07F106FB07F70CFB06F294
:101900004FF0000605FB0CFC12EB074241EB1741C0
:1019100012EB0C4251EB1C4148BF7047921841EB4F
:101920000101A3F1010370471D484FF6FF710170DB
:10193000002080F309881B48016881F308881A4851
:101940004FF08051016062B6FEE717484FF08051BA
:101950000160704714484FF080510160704772B6C3
:10196000EFF3098028B1203880E8F00F0F490968AB
:10197000086000B50E4880475DF804EB0D480E493D
:101980000A78027009480D490A680260106890E8F8
:10199000F00F203080F309884EF0040E62B67047D5
:1019A00022ED00E04001002004ED00E038010020BD
:1019B000293A0008C6000020C70000203C01002092
:1019C00021B1826842F00102826003E0826822F065
:1019D000010282607047000010B50446124884423C
:1019E00008D10121401505F07DF80021601505F0B2
:1019F00079F817E00D48844208D10121001505F05F
:101A000071F80021201505F06DF80BE008488442BC
:101A100008D10121C80305F065F800214FF400400A
:101A200005F060F810BD00000024014000280140CE
:101A3000003C0140014600208A6802F004020AB11D
:101A4000012000E0002070470146C86C80B270475A
:101A50000246002013680B400BB1012000E000207B
:101A60007047014600208A6802F008020AB101208E
:101A700000E000207047000030B50246002000233F
:101A800050680F4C20400D790C6844EA052420432F
:101A9000506090680B4C2040D1E902542C434D79A2
:101AA00044EA450420439060D06A20F470000C7C26
:101AB000641EE4B2234340EA0350D06230BD00000C
:101AC000FFFEF0FFFDF7F1FFF0B504460D460020E4
:101AD0000021092D11DDE068A5F10A0606EB460795
:101AE000072606FA07F18843A5F10A0606EB460623
:101AF00003FA06F10843E0600CE0206905EB4507B6
:101B0000072606FA07F1884305EB450603FA06F1B6
:101B100008432061072A0FDA606B561E06EB860722
:101B20001F2606FA07F18843561E06EB860605FABD
:101B300006F10843606322E00D2A0FDA206BD61FFE
:101B400006EB86071F2606FA07F18843D61F06EB29
:101B5000860605FA06F10843206310E0E06AA2F168
:101B60000D0606EB86071F2606FA07F18843A2F149
:101B70000D0606EB860605FA06F10843E062F0BDA5
:101B8000816841F008018160704721B1826842F4A8
:101B9000A002826003E0826822F4A00282607047A3
:101BA000816841F0040181607047000030B107494D
:101BB000096841F40001054A116005E0034909681C
:101BC00021F40001014A116070470000082401401F
:101BD0001FB50020039000BF00F070F853E008200C
:101BE00000F0F4FB0390039806F09AFA0390039830
:101BF00007F067F880464FF06632234B07F0B0F8E5
:101C000006460022214B06F0D7FE04464FF0333241
:101C10001F4B07F0D9F9824606F0E8FD1D49086020
:101C20000846006800F0DAF81A48006807F0B6FACB
:101C30000446194A194B07F057F813D8184800689A
:101C400008B9012000E000201549086015A006F041
:101C50008DFC1848007828B100201649087011A0A2
:101C600006F084FC1448006808B9012000E0002058
:101C70001149086002A800210B460122CDE900109D
:101C8000084601F0A1FFAAE766660A4000009040FE
:101C90003333D33F28000020AE47E17A14AE25400D
:101CA000940122424C4F473A6C6F775F706F7765B3
:101CB000720D0A00240000208C81234200B587B0F9
:101CC00001214FF4017004F0FDFE4FF4004004F0D8
:101CD000CDFE0220ADF8040000208DF8070001A918
:101CE000194800F0E3FA1948FFF776FE0020029049
:101CF0008DF80C008DF80D004FF46020049000204A
:101D0000059001208DF8180002A91048FFF7B4FED5
:101D100001210E48FFF754FE0120FFF747FF0B4853
:101D2000FFF72EFF00BF0948FFF79BFE0028FAD1FE
:101D30000648FFF735FF00BF0448FFF77BFE002889
:101D4000FAD107B000BD00000008014000240140A6
:101D500008B50121102004F0B5FE2020ADF80000E8
:101D600010208DF8030003208DF802006946044816
:101D700000F09CFA2021024800F023FB08BD00007F
:101D80000010014010B5012004F0BCFE002004F05A
:101D9000B9FE10BD08B50146002000900348009030
:101DA0000098084400900098008808BD006C00402E
:101DB00008B500220092044A0092009A0244009260
:101DC000009A116008BD0000006C004000B585B0AD
:101DD000684604F09DFE019805B000BD70B504464C
:101DE000204607F0DBF90546494A4A4B07F0B6F8AA
:101DF00032D8204607F0D2F90546474A474B07F04C
:101E0000ADF814D80221464800F0DDFA0421444818
:101E100000F0D9FA0821424800F0D5FA10214048D4
:101E200000F0D1FA20213E4800F0CDFA6FE0022107
:101E30003B4800F0C8FA0421394800F0C4FA0821F0
:101E4000374800F0C0FA1021354800F0BCFA2021D4
:101E5000334800F0B6FA5AE0204607F09FF90546ED
:101E60002B4A2C4B06F040FF51D2204607F096F942
:101E70000546294A52422B4B06F036FF14D8022160
:101E8000274800F0A0FA0421254800F09AFA08211A
:101E9000234800F096FA1021214800F092FA202100
:101EA0001F4800F08EFA32E0204607F077F9054629
:101EB000174A52421C4B06F017FF14D8022118484B
:101EC00000F081FA0421164800F07DFA0821144838
:101ED00000F077FA1021124800F073FA2021104820
:101EE00000F06FFA13E002210D4800F06CFA0421B3
:101EF0000B4800F068FA0821094800F064FA102144
:101F0000074800F05EFA2021054800F05AFA70BD3B
:101F1000713D0AD7A370274052B81E85EB51284067
:101F20000020014014AE25405C8F264000BFFEE734
:101F300010B500F01FF800F019F810BD10B500241E
:101F400000BF00BFFEF7DCF9044600BF00BF102150
:101F5000054800F0F3FC00BF00BF2046FEF7D4F9AF
:101F600000BF00BF10BD00006610002010B5FFF7D5
:101F7000E5FF10BD10B500200249086000F00AF826
:101F800010BD00006C00002001490860704700008F
:101F90006C00002010B5FFF719FF044608480068E0
:101FA00040F08070064908600020064948600846F5
:101FB000006840F0010008602046FFF7E5FF10BD13
:101FC000FCED00E0001000E00149486870470000A7
:101FD000001000E07047000008B50121402004F027
:101FE00071FD4020ADF8000010208DF803000320A3
:101FF0008DF802006946054800F058F94021034871
:1020000000F0E1F900F004F808BD000000180140FC
:1020100010B54021054800F0D4F94FF4FA7006F0ED
:1020200017F84021014800F0CEF910BD001801401A
:1020300000B587B00121C80204F044FD012104204D
:1020400004F040FD4FF44070ADF8000004208DF81E
:10205000030069461D4800F029F904A805F002FEB6
:102060000020ADF810004FF6FF70ADF8140000200E
:10207000ADF81600ADF812008DF8180004A9144848
:1020800005F09EFD00231A460321114805F06BFB65
:1020900001A805F0F1FB0A20ADF80C0001A90C48DD
:1020A00005F094FB01210A4805F03CFB0122114692
:1020B000074805F0EAFB0021054805F053FD012122
:1020C000034805F035FB07B000BD000000080140E3
:1020D000002C014000B587B00121084604F0D2FC75
:1020E0000121042004F0EEFC0320ADF800000420E0
:1020F0008DF8030069461E4800F0D8F804A805F0E2
:10210000B1FD0020ADF810004FF6FF70ADF81400DF
:102110000020ADF81600ADF8120004A94FF0804081
:1021200005F04EFD00231A4603214FF0804005F0D4
:102130001AFB01A805F0A0FB0A20ADF80C0001A9CC
:10214000400705F043FB0121880705F0EBFA012267
:102150001146900705F099FB00214FF0804005F0F3
:1021600001FD0121880705F0E3FA07B000BD00007A
:102170000008014000B587B00121022004F082FC74
:102180000121042004F09EFCC020ADF800000420D2
:102190008DF8030069461C4800F088F804A805F093
:1021A00061FD0020ADF810004FF6FF70ADF814008F
:1021B0000020ADF81600ADF8120004A9134805F090
:1021C000FFFC00231A460321104805F0CCFA01A8B1
:1021D00005F052FB0A20ADF80C0001A90B4805F0F0
:1021E000F5FA0121094805F09DFA01221146074838
:1021F00005F04BFB0021054805F0B4FC0121034824
:1022000005F096FA07B000BD000801400004004048
:1022100000B587B00121042004F034FC012108201E
:1022200004F050FCC020ADF8000004208DF803003D
:1022300069461C4800F03AF804A805F013FD002098
:10224000ADF810004FF6FF70ADF814000020ADF8A7
:102250001600ADF8120004A9134805F0B1FC0023E4
:102260001A460321104805F07EFA01A805F004FB88
:102270000A20ADF80C0001A90B4805F0A7FA0121CE
:10228000094805F04FFA01221146074805F0FDFA0A
:102290000021054805F066FC0121034805F048FAD5
:1022A00007B000BD000C0140000800402DE9F041DE
:1022B000024600250026002000230024002791F874
:1022C00003C00CF00F0591F803C00CF0100CBCF12A
:1022D000000F03D091F802C04CEA050591F800C048
:1022E000BCF1000F31D0146800202BE04FF0010C3E
:1022F0000CFA00F3B1F800C00CEA03069E4220D1AC
:1023000083004FF00F0C0CFA03F7BC4305FA03FCF3
:102310004CEA040491F803C0BCF1280F06D14FF039
:10232000010C0CFA00FCC2F814C00AE091F803C0DA
:10233000BCF1480F05D14FF0010C0CFA00FCC2F8BB
:1023400010C0401C0828D1D31460B1F800C0BCF103
:10235000FF0F34DD546800202EE000F1080C4FF030
:10236000010808FA0CF3B1F800C00CEA03069E421B
:1023700021D183004FF00F0C0CFA03F7BC4305FA90
:1023800003FC4CEA040491F803C0BCF1280F05D10A
:1023900000F1080C08FA0CF8C2F8148091F803C098
:1023A000BCF1480F07D100F1080C4FF0010808FA02
:1023B0000CF8C2F81080401C0828CED35460BDE849
:1023C000F0814161704701617047000010B504461B
:1023D0000723012221460948FFF776FB0121074820
:1023E000FFF7D3FB00BF02210448FFF731FB0028B1
:1023F000F9D00248FFF728FB10BD0000002401407F
:1024000000BFFEE70146CA1701EB92729210A1EBE2
:10241000820292B9642091FBF0F200FB121050B9D5
:102420004FF4C87091FBF0F200FB121008B90120C4
:1024300070470020FCE70120FAE70020F8E70000E1
:1024400008B501214FF4C47004F03CFB0820ADF83E
:10245000000010208DF8030003208DF8020069466B
:102460000E48FFF723FF08210C48FFF7AAFF1020B2
:10247000ADF8000069460948FFF718FF102107482A
:10248000FFF79FFF3E20ADF8000069460448FFF7C4
:102490000DFF3E210248FFF794FF08BD001C0140DC
:1024A000002001402DE9F04704460D46601B2549F8
:1024B00088608968234A5268881A06F019FF07461F
:1024C00021480168384606F02BFF064606F0F4FE68
:1024D0001E4908601B49886806F00AFF82461C48AE
:1024E0000168504606F01CFF80461A4801684046C5
:1024F00006F016FF07461548006806F0F9FE81460B
:10250000394606F077FE064606F0D6FE0F4908600B
:102510000C4840680B4908600846806848600B48D2
:102520000068B0F5B47F03DD4FF4B470BDE8F08708
:1025300006480068002801DA0020F7E70348006831
:10254000F4E70000E82B00204401002050010020A7
:10255000480100204C0100202DE9F04704460D46BB
:10256000601B254988608968234A5268881A06F0EA
:10257000BFFE074621480168384606F0D1FE0646F0
:1025800006F09AFE1E4908601B49886806F0B0FEF6
:1025900082461C480168504606F0C2FE80461A4832
:1025A0000168404606F0BCFE07461548006806F084
:1025B0009FFE8146394606F01DFE064606F07CFE6B
:1025C0000F4908600C4840680B490860084680685D
:1025D00048600B480068B0F5B47F03DD4FF4B47079
:1025E000BDE8F08706480068002801DA0020F7E718
:1025F00003480068F4E70000F42B002044010020A9
:1026000054010020480100204C0100202DE9F04732
:1026100004460D46601B254988608968234A526834
:10262000881A06F065FE074621480168384606F01C
:1026300077FE064606F040FE1E4908601B49886882
:1026400006F056FE82461C480168504606F068FEB9
:1026500080461A480168404606F062FE0746154863
:10266000006806F045FE8146394606F0C3FD064681
:1026700006F022FE0F4908600C4840680B490860CC
:102680000846806848600B480068B0F5B47F03DDF9
:102690004FF4B470BDE8F08706480068002801DAFE
:1026A0000020F7E703480068F4E70000002C002052
:1026B0004401002058010020480100204C01002066
:1026C0002DE9F04704460D46601B2549886089685E
:1026D000234A5268881A06F00BFE07462148016813
:1026E000384606F01DFE064606F0E6FD1E49086067
:1026F0001B49886806F0FCFD82461C48016850466C
:1027000006F00EFE80461A480168404606F008FEB4
:1027100007461548006806F0EBFD8146394606F08D
:1027200069FD064606F0C8FD0F4908600C48406880
:102730000B4908600846806848600B480068B0F59F
:10274000B47F03DD4FF4B470BDE8F087064800683D
:10275000002801DA0020F7E703480068F4E70000EA
:102760000C2C0020440100205C01002048010020C6
:102770004C0100200EB500250026002400BFFFF705
:1027800057FCFFF7A7FCFFF7F5FCFFF741FDB3E0AF
:102790005A480078002846D059480078A52842D1E8
:1027A000574840785649897808445549C9780844BB
:1027B00053490979884236D1002050490870504861
:1027C0004078A0F13F054E488078A0F13F064C4884
:1027D000C078A0F13F04B4B9680005B2700006B239
:1027E000701900B247490880701B00B24649088042
:1027F000701B00B245490880701900B24449088036
:1028000005F092FD0FE0600004B23E4804803F48AE
:102810000480604200B23C490880604200B23C49FA
:10282000088005F081FD3B480068002804DA39483B
:10283000006840423749086037480068002804DAD9
:102840003548006840423449086034480068002830
:1028500004DA324800684042304908603048006875
:10286000002804DA2E48006840422D490860294AB1
:10287000128891B2234A128890B2FFF713FE2949B9
:102880000880254A128891B21F4A128890B2FFF739
:1028900063FE25490880214A128891B21B4A12889A
:1028A00090B2FFF7B3FE214908801D4A128891B209
:1028B000174A128890B2FFF703FF1D490880194894
:1028C00001881C4805F045F917480188194805F0AA
:1028D00042F916480188174805F03FF91448018865
:1028E000144805F03CF902A8002105230A46CDE969
:1028F0000010084601F068F94AE7000026000020B1
:1029000080010020000000200200002004000020C0
:1029100006000020100000201400002018000020F5
:102920001C000020080000200A0000200C000020ED
:102930000E0000200034014000BFFEE730B5054620
:102940000C4622460021284600F001F830BD2DE952
:10295000F04105460B4694460027002402E03F0262
:102960001F43641C042CFAD3604605F00306294675
:1029700046B1344603E001F8013B401E641C08B137
:10298000042CF8D30A4601E080C2001F0428FBD2C1
:10299000114602E001F8013B401E0028FAD1BDE8D3
:1029A000F081000008B50121202004F08BF84FF4DD
:1029B000FF50ADF8000010208DF8030003208DF8C3
:1029C000020069461E48FFF771FC20211C48FFF7F2
:1029D000F8FC40211A48FFF7F4FC80211848FFF763
:1029E000F0FC4FF480711648FFF7EBFC4FF40071D8
:1029F0001348FFF7E6FC4FF480611148FFF7E1FC54
:102A00004FF400610E48FFF7DCFC4FF480510C4896
:102A1000FFF7D7FC00214FF4B47004F0E9FD00216A
:102A2000084805F096F80021064805F094F80021C2
:102A3000044805F092F80021024805F090F808BD1E
:102A400000140140003401407047000070B50021BF
:102A500000230F22C47804B3154C246804F4E06406
:102A6000C4F5E064210AC1F10403CA40447804FAC1
:102A700003F184781440214309010E4C0678A155D6
:102A8000047804F01F050124AC4005786D11AD00F9
:102A900005F1E025C5F8004109E0047804F01F05C0
:102AA0000124AC40044D0678761145F8264070BDEF
:102AB0000CED00E000E400E080E100E002490143A9
:102AC000024A1160704700000000FA050CED00E0BA
:102AD00015481648164817481748184818481948FE
:102AE00019481A481A481B481B481C481C481D48CE
:102AF0001D481E481E481F481F482048204821489E
:102B0000214822482248234823482448244825486D
:102B1000254826482648274827482848284829483D
:102B2000294800BF7047000060960008C095000863
:102B3000C4950008C8950008CC950008D0950008F9
:102B4000D4950008D8950008DC950008E0950008A9
:102B5000E4950008E8950008EC950008F095000859
:102B6000F4950008F8950008FC9500080096000808
:102B700004960008089600080C96000810960008B5
:102B800014960008189600081C9600082096000865
:102B900024960008289600082C9600083096000815
:102BA00034960008389600083C96000840960008C5
:102BB00044960008489600084C9600085096000875
:102BC00054960008589600085C96000810B5034813
:102BD000006810B101480068804710BD84000020E3
:102BE00070B5044600F0C2F8002048490870484912
:102BF00008704849087048490860484908604849D1
:102C000008704849087048490870484908604849B0
:102C100008604849086048490870484800680A2127
:102C2000B0FBF1F0464908604648006858B1464894
:102C3000056845B14348066803E0761E0020286019
:102C40002D1D002EF9D10020404908604049086040
:102C500040490860404908604049086040490860B0
:102C6000404908604049087002F016F802F0F6F892
:102C7000204601F0A5F9208800B170BD204601F082
:102C800087FD208800B1F8E7204601F0A9FD2088E3
:102C900000B1F2E7204601F075FE208800B1ECE7B4
:102CA000204602F029F8208800B1E6E7204602F02D
:102CB0004DFA208800B1E0E7204602F06FFD208841
:102CC00000B1DAE7204601F0CFFC208800B1D4E75C
:102CD000204601F0E7FA208800B1CEE7204603F055
:102CE000CDFC208800B1C8E7204602F09BFC20887C
:102CF00000B1C2E7204603F01DFD208800B1BCE70B
:102D000001F086F8FFF7E4FE00BFB6E79800002068
:102D100099000020E0000020380100203C01002044
:102D2000C6000020C7000020C8000020D4000020FA
:102D3000D8000020DC000020E800002020960008D9
:102D4000E4000020F0950008EC95000878000020D1
:102D50007C000020800000208400002088000020EB
:102D60008C00002090000020160100200A4A116803
:102D7000002002E0002204C1401C084A1268904270
:102D8000F8D3054A1268054B1B6802EB8302121F39
:102D9000034B1A6070470000EC950008F09500089E
:102DA0004001002008480078012800D070470748FB
:102DB0000078FA2800DBF9E704480078401C034952
:102DC000087000BFF2E70000990000209800002082
:102DD00010B500242E480078012800D010BD00BF97
:102DE000FDF78EFA044600BF2A48007828B900BFD4
:102DF0002046FDF789FA00BFF0E726480078401E1C
:102E00002449087008460078002805DD00BF2046E8
:102E1000FDF77AFA00BFE1E71F480078002805DDDA
:102E200000BF2046FDF770FA00BFD7E701F020FF92
:102E30001A4908700846007800EB4000184951F81C
:102E40002000184908600846006817490968884248
:102E500005D100BF2046FDF757FA00BFBEE7114875
:102E60000068D0F89000401C0E490968C1F8900035
:102E70000E480068401C0D4908604FF080500C4916
:102E8000086000BF2046FDF73FFA00BF00BFA5E77E
:102E90009900002098000020E0000020C7000020DA
:102EA0009C2600203C010020380100200C0100205D
:102EB00004ED00E010B5002420480078002800DD73
:102EC00010BD1F480078002800DDF9E700BFFDF7BE
:102ED00017FA044600BF01F0CBFE1A4908700846F5
:102EE000007800EB4000184951F8200017490860AD
:102EF0000846006816490968884205D100BF204687
:102F0000FDF702FA00BFDBE710480068D0F8900038
:102F1000401C0E490968C1F890000E480068401C2A
:102F20000C4908604FF080500B49086000BF2046F4
:102F3000FDF7EAF900BF00BFC2E7000098000020DB
:102F4000E0000020C70000209C2600203C0100205B
:102F5000380100200C01002004ED00E070B50446AB
:102F6000002518480078002803DD46F662502080CE
:102F700070BD15480078012803D045F6896020808F
:102F8000F6E712480078FA2803DB45F20920208092
:102F9000EEE700BF00BFFDF7B3F9054600BF00BF75
:102FA0000A480078401C0949087002F03BF800BF4D
:102FB00000BF2846FDF7A8F900BF00BF0020208011
:102FC00000BFD5E79800002099000020E000002015
:102FD00070B50446002520480078002803DD46F639
:102FE0006550208070BD1D480078012803D045F64B
:102FF00089602080F6E71A48007818B946F66450D0
:103000002080EFE700BF00BFFDF77AF9054600BF5B
:1030100000BF13480078401E114908700846007828
:1030200000280ADD00BF00BF2846FDF76DF900BF8C
:1030300000BF46F663502080D4E702F001F800BFDD
:1030400000BF2846FDF760F900BF00BFFFF732FF61
:103050000020208000BFC5E79800002099000020D4
:10306000E000002010B5044612480078E8B901F0ED
:10307000FFFD1149087008460078104908700E4895
:10308000007800EB40000E4951F820000D4908601F
:10309000084600680C490860012006490870FEF7E0
:1030A00043FC43F69920208002E045F68A602080A8
:1030B00010BD000099000020C7000020C6000020BD
:1030C0009C2600203C010020380100202DE9F04121
:1030D00007464FF0000800BF00BFFDF711F980461A
:1030E00000BF00BF00203D4908603D4908803D49C0
:1030F00008803D4908603D4908603D4908603D49F8
:1031000008603D49088100BF00BF4046FDF7FCF85C
:1031100000BF00BF00BF00BFFDF7F2F8804600BF50
:1031200000BF3648046800BF00BF4046FDF7ECF81A
:1031300000BF00BF21E000BF00BFFDF7E1F88046FF
:1031400000BF00BF00207834E06320602063A061EE
:10315000A082E0826062A062FEF736FF2062783CC7
:1031600004F164060020B081D4F8BC4000BF00BF69
:103170004046FDF7C9F800BF00BF002CDBD100BFFF
:1031800000BFFDF7BDF8804600BF00BF1C480568C2
:1031900000BF00BF4046FDF7B7F800BF00BF12E018
:1031A00000BF00BFFDF7ACF8804600BF00BF05F1CF
:1031B00020060020B081AD6900BF00BF4046FDF78A
:1031C000A3F800BF00BF002DEAD103F033F903F0EC
:1031D000ADFB00203880BDE8F0810000AC0000208D
:1031E000A6000020F6000020080100201C0100209D
:1031F00028010020D8000020902600201001002087
:10320000CC00002010B50348006810B101480068E8
:10321000804710BD880000202DE9FF4F87B004468D
:103220009046DDE91BA5DDE91496179F0020039069
:1032300087480078002805DD47F24A1028800BB047
:10324000BDE8F08F1CB947F2AD102880F7E7B8F160
:10325000000F03D147F24F102880F0E71EB946F661
:103260002F602880EBE77B480068874203D246F650
:1032700030602880E3E71698B84203D346F6316001
:103280002880DCE7B9F1400F03D346F27320288091
:10329000D5E7B9F1000F06D16F48844203D046F25A
:1032A00073202880CBE7B9F13F0F06D16B488442E9
:1032B00003D046F273202880C1E7204602F07EFA50
:1032C000002028800AF0010090B10AF0020078B1D5
:1032D00005960020069008E00021059801600598F9
:1032E000001D05900698401C06900698B842F3D33E
:1032F000169806EB80000490CDE9007A32464046ED
:10330000049B0A9900F030FB0590C4F828800A98C5
:10331000E0620898206284F837900598206004984D
:10332000A06019986065199818B94D480068A065A3
:1033300001E01998A0651A9860606662A763A4F816
:103340003CA04FF0000B08E0002104F17C0040F8A5
:103350002B100BF1010000F0FF0BBBF1000FF3D0BD
:1033600004F16400189901F087FA204600F082F811
:1033700000BF00BF00BFFCF7C3FF039000BF00BF4A
:1033800038480078401C3749087000BF00BF0398D8
:10339000FCF7BAFF00BF00BF00BF94F8370001F090
:1033A00087FC204601F0A2FD204602F0BDF92E4820
:1033B0000088401C2C4908802C48007801282DD01A
:1033C00000BF00BF00BFFCF79BFF039000BF00BF22
:1033D00024480078401E2349087008460078A0B9A8
:1033E00023480088002809DD00BF00BF0398FCF7D0
:1033F0008BFF00BF00BF01F0E7FD0DE000BF00BF85
:103400000398FCF781FF00BF06E000BF00BF0398F0
:10341000FCF77AFF00BF00BF00BF10E700BF00BF8E
:1034200000BFFCF76DFF039000BF00BF0D480078A0
:10343000401E0C49087000BF00BF0398FCF764FFF2
:1034400000BF00BF00BFFFF735FD00BFF7E600007B
:10345000980000201C960008CC250020082500209C
:10346000E4000020E000002014010020990000206A
:10347000A400002010B504460348006818B1204697
:1034800001490968884710BD7800002070B50446DE
:103490000D46002667480078002803DD47F24E10ED
:1034A000288070BD6448844203D147F24C102880C4
:1034B000F7E76248844203D147F24D102880F0E7D5
:1034C0007CB900BF00BFFCF71BFF064600BF00BF72
:1034D0005B48046800BF00BF3046FCF715FF00BF23
:1034E00000BF00BF00BF00BFFCF70AFF064600BFD9
:1034F00000BF54480078401C5249087000BF00BF0C
:103500003046FCF701FF00BF00BF00BF94F8360053
:1035100008282DD2DFE800F004090E10080A0F1168
:10352000204601F023FD54E053E000BF204602F0A6
:1035300065FF4EE000BF00BF00BF204602F05EFF07
:1035400094F83400082810D2DFE800F004070508DA
:10355000090A0B0600BF00BF08E000BF00BF00BFA4
:1035600000BF204601F0D5FA00E000BF00BF30E008
:1035700000BF00BF00BFFCF7C3FE064600BF00BF90
:1035800030480078401E2F49087008460078A0B9DE
:103590002D480088002809DD00BF00BF3046FCF739
:1035A000B3FE00BF00BF01F00FFD0DE000BF00BF84
:1035B0003046FCF7A9FE00BF06E000BF00BF304662
:1035C000FCF7A2FE00BF00BF00BF46F62D602880BA
:1035D00067E700BF04F1640001F02CF9204600F019
:1035E00037F8204602F0B8F818480088401E1749FE
:1035F0000880204602F0E2F8FF2084F8360000BF81
:1036000000BF00BFFCF77CFE064600BF00BF0D48B0
:103610000078401E0B49087000BF00BF3046FCF721
:1036200073FE00BF00BF00BF00202880FFF742FCF0
:1036300000BF36E79800002008250020CC25002098
:1036400038010020E0000020A40000201401002028
:1036500010B504460348006818B1204601490968BE
:10366000884710BD7C00002010B504460348006860
:1036700018B1204601490968884710BD8000002024
:103680002DE9F04780460E4614461D464FF00009CE
:103690007D480078002805DD46F2AE102880002025
:1036A000BDE8F0871EB1B6F5004F02D100E000BFC3
:1036B00004E045F6256028800020F1E700BF0CB14A
:1036C0000020206000BF00BFFCF71AFE814600BF4B
:1036D00000BF6E480068406CA8B36C480068406C3E
:1036E000401E6A490968486468480068476C1CB114
:1036F00066480068006C2060FEF766FC6349096854
:10370000096C401A61490968C1F8A4005F48006863
:10371000D0F8A8005D490968D1F8A410884207D202
:103720005A480068D0F8A40058490968C1F8A800B0
:1037300000BF00BF4846FCF7E7FD00BF00BF002008
:1037400028803846ACE7FFE706F4004058B100BFD8
:1037500000BF4846FCF7D8FD00BF00BF46F2B010DE
:10376000288000209CE74A48007800280BDD00BF35
:1037700000BF4846FCF7C8FD00BF00BF46F66350D7
:10378000288000208CE700BF41480078401C404959
:10379000087000BF00BF4846FCF7B6FD00BF00BF81
:1037A00000BF434607220021084601F0F7F800BF9A
:1037B00000BF00BFFCF7A4FD814600BF00BF344836
:1037C0000078401E3249087000BF00BF4846FCF731
:1037D0009BFD00BF00BF00BFFFF76CFB00BF00BF39
:1037E000FCF78EFD814600BF00BF2848006890F8B6
:1037F000350020B1012826D0032834D12CE0FCB1BB
:1038000022480068006C2060FEF7DEFB1F49096853
:10381000096C401A1D490968C1F8A4001B480068DA
:10382000D0F8A80019490968D1F8A410884207D235
:1038300016480068D0F8A40014490968C1F8A80027
:103840000020288013E01CB110480068006C206044
:1038500046F2A91028800AE00CB10020206047F24F
:10386000D920288003E046F62E60288000BF00BFE4
:1038700006480068476C00BF00BF4846FCF744FD9F
:1038800000BF00BF38460BE7980000203801002039
:10389000E00000202DE9F04705460E4617461C467D
:1038A0004FF0000A2E480078002804DD47F2591036
:1038B0002080BDE8F0871EB946F2D5202080F8E7C9
:1038C0001FB946F2D5202080F3E700BF00BFFCF708
:1038D00017FD824600BF00BF0DB922480568286861
:1038E00068B900BF00BF5046FCF70EFD00BF00BF27
:1038F00000203060386047F252102080D9E795F8F8
:103900003C0000F0010068B900BF00BF5046FCF762
:10391000FBFC00BF00BF00203060386047F254104D
:103920002080C6E700BF00BF5046FCF7EDFC00BF9B
:1039300000BF4FF00008D5F8249003E009F1040916
:1039400008F10108D9F800000028F7D0C6F8008077
:10395000A86BA0EB080038600020208000BFA8E71B
:103960009800002038010020F0B50446DDE9055636
:1039700002EB85004FF0807C071F3846C7F800C077
:10398000071F38463C60DFF89CC0071F3846C7F861
:1039900000C04FF0123C071F3846C7F800C04FF078
:1039A000033C071F3846C7F800C04FF0023C071F12
:1039B0003846C7F800C0071F38463B60071F384627
:1039C00039604FF0113C071F3846C7F800C04FF070
:1039D000103C071F3846C7F800C04FF0093C071FCE
:1039E0003846C7F800C04FF0083C071F3846C7F8F4
:1039F00000C04FF0073C071F3846C7F800C04FF023
:103A0000063C071F3846C7F800C04FF0053C071FAB
:103A10003846C7F800C04FF0043C071F3846C7F8C7
:103A200000C0F0BDED5B000810B51D48006810B186
:103A30001B4800688047FEF7C7FA0446194800682B
:103A400019490968884215D016480068D0F89800CE
:103A5000201A14490968C1F8940012480068D0F887
:103A60009C0010490968D1F8941008440D49096870
:103A7000C1F89C000C480068C0F8984009480068EC
:103A8000D0F8B40009490968884205D2074800689F
:103A900004490968C1F8B40000200449086010BD59
:103AA0008C000020380100203C010020DC000020B8
:103AB0002DE9F04105460E46144600273F480078A0
:103AC000002804DD47F275202080BDE8F0813C48E5
:103AD0000078002803DD46F663502080F5E736B114
:103AE000022E05D0042E0AD0082E09D101E000BF15
:103AF00000BF1DB947F27E202080E6E704E003E026
:103B000045F625602080E0E700BF00BF00BF00BF92
:103B1000FCF7F6FB074600BF00BF29480078401CB1
:103B20002749087000BF00BF3846FCF7EDFB00BF17
:103B300000BF00BF01202349096881F836002346F1
:103B4000324629461F48006802F07AFB2088A8B157
:103B500000BF00BF00BFFCF7D3FB074600BF00BF9C
:103B600017480078401E1649087000BF00BF38464D
:103B7000FCF7CAFB00BF00BF00BFA6E71148006802
:103B800001F0F4F900BF00BF00BFFCF7B9FB074626
:103B900000BF00BF0A480078401E0949087000BFF6
:103BA00000BF3846FCF7B0FB00BF00BF00BFFFF707
:103BB00081F90020208000BF87E7000098000020E6
:103BC000E0000020380100202DE9FF5F05460E4689
:103BD00017469846DDE90EA4002000907248007850
:103BE000002804DD47F275202080BDE8FF9F6F4864
:103BF0000078002803DD46F663502080F5E70AF0E0
:103C00000E0BBBF1000F09D0BBF1020F07D0BBF1C7
:103C1000040F10D0BBF1080F0ED101E000BF00BFB0
:103C2000B8F1000F06D12FB926B91DB947F27E2091
:103C30002080DAE704E003E045F625602080D4E741
:103C400000BF2AF01E0008B1012000E00020039010
:103C50000398012803D145F625602080C5E7CAF303
:103C6000001002900298C0B9B8F57A7F03D347F2EA
:103C70007B202080B9E73B2F03DD47F27A202080AC
:103C8000B3E73B2E03DD47F279202080ADE7632DBB
:103C900012DD47F278202080A7E742F20F708642BB
:103CA00003DD47F2792020809FE7B5F57A7F03DBBB
:103CB00047F27820208098E73D48D0F800904FF4F4
:103CC000FA70B0FBF9F0404400FB09F04FF47A7150
:103CD000B0FBF1F14FF461606843C6EB061200EBF4
:103CE0008200384400FB091001900198002856D04A
:103CF00000BF00BF00BFFCF703FB009000BF00BF88
:103D00002A480078401C2949087000BF00BF00986D
:103D1000FCF7FAFA00BF00BF00BF0120254909687F
:103D200081F8360023465A4622480199006802F07D
:103D300087FA2088A8B100BF00BF00BFFCF7E0FAF7
:103D4000009000BF00BF19480078401E1749087056
:103D500000BF00BF0098FCF7D7FA00BF00BF00BF4C
:103D600043E71448006801F001F900BF00BF00BF3D
:103D7000FCF7C6FA009000BF00BF0C480078401E58
:103D80000A49087000BF00BF0098FCF7BDFA00BFE9
:103D900000BF00BFFFF78EF80020208002E047F24E
:103DA0007E20208000BF20E798000020E000002057
:103DB000209600083801002010B586B000F01EF8EB
:103DC000FEF702F9044605A800210091CDE901148F
:103DD00003900748007800EB4000064A02EB8001A0
:103DE00000231A46044800F095FA06B010BD000002
:103DF000C60000209C2600205449434B10B50348C0
:103E0000006810B101480068804710BD9000002094
:103E10002448254825482648264827482748284832
:103E20002848294829482A482A482B482B482C4802
:103E30002C482D482D482E482E482F482F483048D2
:103E400030483148314832483248334833483448A2
:103E50003448354835483648364837483748384872
:103E60003848394839483A483A483B483B483C4842
:103E70003C483D483D483E483E483F483F48404812
:103E800040484148414842484248434843484448E2
:103E9000444845484548464846484748474800BF83
:103EA0007047000064960008CC97000866960008EA
:103EB00067960008689600086C96000870960008DF
:103EC0006D96000898960008999600089A96000842
:103ED0009C9600089E960008A0960008A2960008EE
:103EE000A4960008C4960008C6960008C896000864
:103EF000CA960008CC960008CE960008D096000816
:103F0000FC960008FD960008FE9600080097000841
:103F10000297000803970008049700080697000816
:103F2000089700080A9700080C9700080E970008E9
:103F30001097000840970008419700084297000832
:103F400043970008449700084697000848970008E0
:103F5000709700087197000872970008739700081F
:103F60007497000876970008789700087C970008F7
:103F70007D9700087E9700087F97000880970008CB
:103F800081970008829700088397000884970008AB
:103F90008697000887970008889700088A97000886
:103FA0008C9700088D97000890970008C497000828
:103FB000C5970008C6970008C8970008CA97000868
:103FC0000021034A1160034A1180018070470000FC
:103FD000B0000020B40000202DE9F04F85B0044669
:103FE000894692469B46DDF838800020009000BF4D
:103FF00000BFFCF785F9009000BF00BFBAF1000FC9
:104000000AD0BAF1010F0DD0BAF5004F05D06FF408
:104010000040504460B906E000BF206A40EA090051
:10402000206214E000BF206A20EA090020620EE04E
:1040300000BF00BF0098FCF767F900BF00BF45F65E
:104040002560A8F80000002005B0BDE8F08F00BF93
:10405000C4F824B004F1080001900198008958B90F
:1040600000BF00BF0098FCF74FF900BF00BF002061
:10407000A8F80000206AE7E700BF61480078401C0C
:104080005F49087000BF00BF0098FCF73DF900BF12
:1040900000BF00BF01980768BD687FE078680290A4
:1040A00095F8880000F00F0003900398012821D0B4
:1040B00002282ED0042802D0082836D10EE0206A2B
:1040C000D5F8801000EA0106D5F88000B04204D18E
:1040D0005A463146284600F097F859E0206AD5F84C
:1040E000801000EA010626B15A463146284600F003
:1040F0008BF84DE0D5F88000216A20EA0106D5F85A
:104100008000B04204D15A463146284600F07CF87F
:104110003EE0D5F88000216A20EA010626B15A4621
:104120003146284600F070F832E000BF00BF00BF03
:10413000FCF7E6F8009000BF00BF31480078401E51
:104140002F49087008460078A0B92E48008800283A
:1041500009DD00BF00BF0098FCF7D6F800BF00BF24
:1041600000F032FF0DE000BF00BF0098FCF7CCF874
:1041700000BF06E000BF00BF0098FCF7C5F800BF15
:1041800000BF00BF43F6FF20A8F8000000205BE757
:1041900000BF029F0FB1BD6800E00025002D7FF435
:1041A0007DAF00BF00BF00BFFCF7AAF8009000BFC2
:1041B00000BF13480078401E1149087000BF00BFBF
:1041C0000098FCF7A1F800BF00BF00BF0AF4004050
:1041D00008B9FEF76FFE00BF00BFFCF791F8009032
:1041E00000BF00BF206A049000BF00BF0098FCF72A
:1041F0008BF800BF00BF0020A8F80000049823E758
:10420000E0000020A400002070B504460E461546CC
:1042100034342665002060702070E560A078343C5E
:10422000082816D2DFE800F0040508090706101177
:1042300000BF00BF00BF0DE000BF204601F028FC1A
:10424000002084F8360005E000BF042084F8360022
:1042500000E000BF00BF204600F05BFC70BD000026
:10426000002400BF19E000BF00BFFCF749F8044676
:1042700000BF00BF09480068401C084908600848A2
:104280000068401C0649086000BF00BF2046FCF7DC
:104290003BF800BF00BFFEF799FCE4E79400002064
:1042A000F800002010B58AB0044600200E490860CE
:1042B0000B2000210591CDE90704069108460B4922
:1042C00009680B4A12680B4B1B68CDE90132CDE936
:1042D00003103F200023084A08A100900C48FEF775
:1042E0009BFF0AB010BD000094000020C895000894
:1042F000C4950008C09500086142000875432F4F1F
:10430000532D4949492049646C65205461736B0001
:10431000082500202DE9F84F04460D4616461F4695
:10432000DDE90BABDDF82890DDF83480002000904B
:1043300000BF00BFFBF7E4FF009000BF00BF2B48A9
:1043400000882B49098888423EDA28480088401CAA
:1043500026490880274800880988884203DA2348CC
:1043600000882449088024480068046022480068C6
:10437000856021480068C6601F48006807821E48A3
:104380000068C0F814901C480068A0F818A01A48EB
:104390000068C0F81CB018480068406816490860FA
:1043A000012016490881164808604860002000F086
:1043B0007FFC1448007818B1124800781249087040
:1043C0000020A8F8000008E010480088401C0F49B1
:1043D000088044F25360A8F8000000BF00BF0098B6
:1043E000FBF792FF00BF00BFBDE8F88FA4000020DC
:1043F000D4950008A60000209C0000209C260020E8
:10440000CC250020C6000020C8000020A800002005
:104410003EB5594800680068584A811A904279D0E0
:104420000FDC5749084400283ED056490844A8B13B
:1044300055490844002860D05449084400286AD1EE
:104440003FE053480844002850D05249084400280F
:1044500062D0514908440028F1D110E002A8464D2D
:1044600000902D68EB69444D2D682A8B424D2D68D4
:104470006969414D2D68A868FFF7AEFD7AE002A991
:104480003D480068C0693C4DCDE900012D682B8B8B
:10449000394D2D682A8A384D2D68E968364D2D68CA
:1044A000A86800F035FC65E0334B1B68DA69324BD5
:1044B0001B68198B304B1B68986802AB00F052FEEA
:1044C00058E002A92C480068C0692B4DCDE90001D5
:1044D0002D682B8B284D2D682A8A274D2D68E96879
:1044E000254D2D68A86801F0CDF943E022490968FF
:1044F000886802A901F0DAFA3CE01F4B1B68DA6910
:104500001D4B1B68198B1C4B1B68986802AB01F094
:1045100079FB2FE007E02CE017490968886802A9B9
:1045200001F0D2FD26E01D49097801EB41011C4A4A
:1045300002EB810000F0A2FD0F48006802AB0021F1
:10454000C269184801F05EFB17480068401E164912
:1045500008600846006858B9144800680860FDF70C
:1045600033FD044602AB22460021114801F04AFB0C
:1045700000E000BF00BF3EBDA00000205449434BF7
:10458000ADBAB2BE0DF90BFAF2F8F7FF0006F6FF6E
:1045900000F7FDF700FFEFFF03FE0FFEC80000204D
:1045A0009C260020602A00203401002030010020D9
:1045B000242B0020002700BF4CE0002648E000BF6D
:1045C00000BFFBF79DFE074600BF00BF22480088E2
:1045D00088B90020214908810860486000F07AFB12
:1045E00000BF00BF3846FBF78FFE00BF00BFFEF7DD
:1045F00061FC01262CE000BF00BF3846FBF784FEBB
:1046000000BF00BFFDF7E0FC0546FFF701FFFDF727
:10461000DBFC441B12480068A04201D21048046031
:1046200000BF00BFFBF76CFE074600BF00BF0D4890
:10463000006840680B49086007480088401E06492A
:10464000088000BF00BF3846FBF75EFE00BF00BF1A
:10465000002EB4D0B1E70000A40000209C2600206A
:10466000AC000020A0000020F0B589B00546002075
:10467000314908803148006820B944F252602880EE
:1046800009B0F0BD2E480088022803DA44F25460D5
:104690002880F5E700202B49086028480468264652
:1046A000203600270CE0284820600020A060E06051
:1046B000208260612083666020342036781C87B2B7
:1046C0001F4800888742EEDB203C1C480668666075
:1046D0001E4806601E48066000201E4908801E49CC
:1046E00008801E48006818B944F255602880C7E762
:1046F0001B4800681B490968884203D244F256608F
:104700002880BDE7032000210591CDE9070506912A
:1047100013480068144A1268104B1B68CDE9030166
:10472000CDE9013200910B46104A11A11748FEF75E
:1047300073FD00BFA4E70000A8000020D09500088A
:10474000D4950008AC0000204E4F4E459C00002040
:10475000A0000020A4000020A6000020DC95000896
:10476000E49500081C960008E0950008B54500088F
:1047700075432F4F532D49494920495352205175B4
:10478000657565205461736B00000000CC25002026
:104790000021034A1160034A118001807047000024
:1047A000B8000020BC00002070B502460B46104641
:1047B000114610315E1EB5B2002408E001600026EB
:1047C00046600681C66010301031661CB4B2AC423F
:1047D000F4DB0026066046600681C66070BD0000FE
:1047E00010B504461048006818B945F21E702080C4
:1047F00010BD0E48008818B945F21D702080F7E7FB
:104800000A48018808480068FFF7CEFF064800689C
:10481000074908600548008888800020C880088112
:10482000208000BFE4E7000000960008F89500082B
:104830009026002010B5014648894B89002B17DDD2
:104840000A680C4B1B6813600A4C4B6823602346B4
:10485000DB884C891B1B074CE38023469B884C89D3
:104860002344044CA38000234B818B810B604B605D
:1048700010BD00009026002001810022428182812B
:1048800002604260704700002DE9F0410D46DDE90D
:104890000674B0F80AC0B0F80880C44505DB46F2DB
:1048A000935CA4F800C0BDE8F081DFF8D4C0BCF888
:1048B00004C0BCF1000F04D145F21D7CA4F800C077
:1048C000F1E7DFF8BCC0DCF80010DFF8B480D1F805
:1048D00000C0C8F800C0C446BCF804C0ACF1010C6C
:1048E000A8F804C0C446BCF806C00CF1010CA8F836
:1048F00006C0C446BCF808C0B8F80680C44507DA4C
:10490000DFF87CC0BCF806C0DFF87480A8F808C0E7
:10491000B0F80AC0BCF1000F06D1016041604FF051
:10492000010CA0F80AC017E003F0100CBCF1000F56
:1049300007D1066831604FF0000CC1F800C001607B
:1049400004E0D0F804C0C1F800C04160B0F80AC06B
:104950000CF1010CA0F80AC0B0F80CC0B0F80A8045
:10496000C44503DAB0F80AC0A0F80CC04D600A8153
:10497000CF604FF0000CA4F800C000BF93E7000028
:10498000902600200021034A1160034A1180018013
:1049900070470000C0000020C40000202DE9F04155
:1049A00005460C4616461F461548006880F83460D8
:1049B00000201349096881F835003946104800681D
:1049C00000F096FE6CB104F10808EC600122294663
:1049D0000B48006800F016F82946404600F066F8DB
:1049E00006E0002006490968C88705490968086388
:1049F00003480168204600F019F8BDE8F081000086
:104A00003801002010B5C287016300230AE00024AA
:104A10004C600C600C614C610C83CC61886020316F
:104A20005C1CA3B29342F2DB10BD000030B548B16C
:104A30004568C1F8C05000F10804226893681D6AF7
:104A4000C56113E091F83450022D02D0072D08D132
:104A500003E007A5C1F8C05007E007A5C1F8C050A2
:104A600003E008A5C1F8C05000BF00BF30BD000082
:104A70005461736B205100005461736B2053656D5A
:104A8000000000002000000030B507A5C1F8C050AC
:104A900000F1080422681AB193681D6AC56101E03B
:104AA00001A5C56130BD000020000000F0B58E6892
:104AB00096F8375007893FB90127078100274F60D3
:104AC0000F600160416023E007897F1C0781026855
:104AD00006E0946894F83770AF4200DD02E0526857
:104AE000002AF6D100BF32B900274F6043680B603F
:104AF000596041600CE017682FB9116000270F6002
:104B00004A60016004E013680B604A6059601160FC
:104B1000F0BD2DE9F0410446256BE68F0AE0D5F89B
:104B20000C8008F108072946384600F00AF82035BD
:104B3000701E86B2002EF2DC0020E0872063BDE804
:104B4000F08110B50489012C03D100240460446075
:104B500011E00C6824B94A680024146002600AE07D
:104B60004C6824B90B6800245C60436003E00B6868
:104B70004A685A6013600489641E048100244C60F2
:104B80000C6010BD2DE9F84306460C4617469846C2
:104B9000089D94F83600082850D2DFE800F004059C
:104BA000080906072B2C00BF00BF00BF47E000BF6D
:104BB00094F83400032807D143463A46214630464C
:104BC000009500F03FF803E0E765A4F860802564F5
:104BD00036B12046FFF79DFF21463046FFF754FFD0
:104BE000204600F055FF00203434A070607004F8B7
:104BF000340924E000BF94F83400032807D1434669
:104C00003A4621463046009500F01CF803E0E7657F
:104C1000A4F860802564204601F0F0FB36B1204600
:104C2000FFF777FF21463046FFF72EFF042034348C
:104C3000A0700020607004F8340900E000BF00BFDD
:104C4000BDE8F883F0B50446059E086BCD8F0AE0F9
:104C5000C768A74204D1046142610383C66104E0CE
:104C600020306F1EBDB2002DF2DC00BFF0BD000091
:104C700070B50025074C03E005F12000C5B2241DE6
:104C800020680028F8D02068FBF745FB2844C5B20F
:104C9000284670BD70000020002004E00021034A77
:104CA00042F82010401C0228F8D370477000002002
:104CB00030B5420900F01F030121C3F11F04A140D8
:104CC000034C54F822400C43014D45F8224030BDBE
:104CD0007000002030B5420900F01F030121C3F12C
:104CE0001F04A140034C54F822408C43014D45F869
:104CF000224030BD700000200021034A1160034AA9
:104D00001180018070470000CC000020D0000020FE
:104D10002DE9F04F85B007468A4693461C46002091
:104D2000029000BF00BF00BFFBF7EAFA029000BF8D
:104D300000BF48480078401C4649087000BF00BFCB
:104D40000298FBF7E1FA00BF00BF00BF07F10806B9
:104D50003089002842D104F0100010B94FF000084B
:104D600001E04FF01008DDE90E0143465A46CDE957
:104D70000001514607F12000FFF786FD00BF00BF8C
:104D800000BFFBF7BDFA029000BF00BF31480078BA
:104D9000401E3049087008460078A0B92E480088A7
:104DA000002809DD00BF00BF0298FBF7ADFA00BF85
:104DB00000BF00F009F90DE000BF00BF0298FBF74B
:104DC000A3FA00BF06E000BF00BF0298FBF79CFA01
:104DD00000BF00BF00BF05B0BDE8F08F04F4007055
:104DE00008B1358900E00125D6F8009011E0D9F826
:104DF00008000390D9F8040004900E985B465246D0
:104E0000009038460399FFF7BDFEDDF81090681E4C
:104E100085B2002DEBD100BF00BF00BFFBF770FAD9
:104E2000029000BF00BF0B480078401E094908707F
:104E300000BF00BF0298FBF767FA00BF00BF00BFCA
:104E400004F4004008B9FEF735F800210F980180FE
:104E500000BFC0E7E0000020A400002000210AE01D
:104E600001EB4102054B03EB82000022028102604C
:104E700042604A1CD1B24029F2D370479C260020E0
:104E800010B5044694F83700FFF712FF94F8370086
:104E900005490978884203D1204600F027F802E04E
:104EA000204600F003F810BDC600002010B590F8B1
:104EB000373003EB43030C4C04EB83010B893BB904
:104EC00001230B810023C36003610860486009E08F
:104ED0000B895B1C0B810B68C360002303610A68AC
:104EE0001061086010BD00009C26002010B590F8ED
:104EF000373003EB43030B4C04EB83010B893BB9C5
:104F000001230B810023C36003610860486008E04F
:104F10000B895B1C0B810023C3604A680261D0606F
:104F2000486010BD9C26002010B501460C8924B1B4
:104F3000012C03D0022C0CD101E000BF14E0086862
:104F40004A6802610024C4601461D0600A6048604D
:104F50000AE008684A68C36800241C61C4600261F2
:104F6000D0600B60486000BF00BF10BD2DE9F0416C
:104F7000054695F8370000EB4000124901EB80042C
:104F80002F69EE6887B946B90020208120606060F3
:104F900095F83700FFF79EFE0EE02089401E208125
:104FA00000203061266007E02089401E2081FE60DD
:104FB0000EB9676000E0376100202861E860BDE855
:104FC000F08100009C26002010B5002400BFFBF7F4
:104FD00097F9044600BF00200D4908700D480E499E
:104FE000086008460068D0F89000401C0968C1F8C5
:104FF00090000A480068401C084908604FF0805043
:105000000749086000BF2046FBF77EF900BF10BDCE
:10501000C7000020CC2500203C0100200C0100200E
:1050200004ED00E010B504480078012803D1FCF736
:10503000CBFF0249086010BDE0000020D400002032
:1050400010B50A48007880B9FCF7BEFF0849096826
:10505000441A08480068A04201D206480460064885
:105060000068A04201D20448046010BDE0000020A6
:10507000D4000020D8000020DC00002070B50546D8
:1050800000262E480078012800D070BD00BF00BF68
:10509000FBF736F9064600BF00BF2C683CB900BFDD
:1050A00000BF3046FBF730F900BF00BFEDE72448F2
:1050B000844207D100BF00BF3046FBF725F900BF8F
:1050C00000BFE2E7A06D10B1A06D401EA065A06D0D
:1050D00038B100BF00BF3046FBF716F900BF00BF74
:1050E000D3E72889022807DA00BF00BF3046FBF764
:1050F0000BF900BF00BFC8E712480078002807DDA1
:1051000000BF00BF3046FBF7FFF800BF00BFBCE7A1
:105110002846FFF709FF2C68606D18B90A48006837
:10512000A06501E0606DA06500BF00BF3046FBF7E1
:10513000EBF800BF00BF00BFA7E70000E8000020B9
:1051400008250020E0000020E40000200021034AA0
:105150001160034A1180018070470000EC000020BC
:10516000F00000202DE9FF5F0446884691461D4669
:105170000020019000BF00BFFBF7C2F8019000BF04
:1051800000BF04F10807388900284FD10420012806
:1051900004D0022814D0042834D123E0206AFF2848
:1051A0000DD100BF00BF0198FBF7AEF800BF00BFF4
:1051B00046F6C5502880002004B0BDE8F09F22E0EC
:1051C0004FF6FF71206A88420BD100BF00BF0198E3
:1051D000FBF79AF800BF00BF46F6C55028800020B4
:1051E000EAE710E0206A401C58B900BF00BF0198F0
:1051F000FBF78AF800BF00BF46F6C55028800020A4
:10520000DAE700E000BF00BF206A401C2062D4F84B
:1052100020A0C4F8249000BF00BF0198FBF774F8E9
:1052200000BF00BF002028805046C5E700BF2548CA
:105230000078401C2349087000BF00BF0198FBF7AD
:1052400063F800BF00BF00BF08F4007008B13E89DA
:1052500000E00126D7F800B011E0DBF8080002906A
:10526000DBF80400039000231A46CDF80090204696
:105270000299FFF787FCDDF80CB0701E86B2002E95
:10528000EBD1D4F820A000BF00BF00BFFBF738F877
:10529000019000BF00BF0B480078401E094908700C
:1052A00000BF00BF0198FBF72FF800BF00BF00BF91
:1052B00008F4004008B9FDF7FDFD002028805046A5
:1052C0007AE70000E000002086B00020009000BFD8
:1052D00006E0C3490968480001AA0021FEF7E8FB7F
:1052E000C04800780128F4D101A8FDF7EFFE00279F
:1052F000BD480068BA490968884205D9BA480068BB
:10530000B7490968B0FBF1F727B9B74800680A2127
:10531000B0FBF1F762E1FCF757FE804600BF00BF2B
:10532000FAF7EEFF009000BF00BFB0480068B04938
:1053300008600020AD49086000BF00BF0098FAF780
:10534000E3FF00BF00BFAB480068A9490968884275
:1053500048D9A8480068A849884205D242F210708E
:1053600003900120029023E0A2480068A3498842EC
:1053700005D24FF47A7003900A20029018E09D48FD
:1053800000689F49884203D26420039002900FE096
:10539000984800689B49884205D20A2003904FF440
:1053A0007A70029004E00120039042F210700290A3
:1053B000904801680298B1FBF0FA8D49039809689A
:1053C0004843B0FBFAF042F21071081A8E49088087
:1053D0008E4800880988884208DA8B4800888B4903
:1053E000088003E042F2107087490880FDF70AFF49
:1053F000002500BF00BFFAF783FF009000BF00BF89
:105400008348046800BF00BF0098FAF77DFF00BF23
:1054100000BF5AE000BF00BF00BFFAF771FF009065
:1054200000BF00BF7B480078401C7A49087000BF6D
:1054300000BF0098FAF768FF00BF00BF00BF54F834
:105440009C0F6060002044F89C0900BF00BF00BFB3
:10545000FAF756FF009000BF00BF6E480078401E6C
:105460006C49087008460078A0B96B48008800288D
:1054700009DD00BF00BF0098FAF746FF00BF00BF7C
:10548000FFF7A2FD0DE000BF00BF0098FAF73CFF58
:1054900000BF06E000BF00BF0098FAF735FF00BF6D
:1054A00000BF00BFD4F8A000054400BF00BFFAF75A
:1054B00027FF009000BF00BFD4F8BC4000BF00BF72
:1054C0000098FAF721FF00BF00BF002CA2D145B31E
:1054D0004948854205D242F2107005904FF0010B09
:1054E0001BE04648854205D24FF47A7005904FF094
:1054F0000A0B12E04248854203D26420059083469D
:105500000BE04048854204D20A2005904FF47A7B94
:1055100003E00120059042F2107BB5FBFBF0049004
:1055200003E0002005900120049000BF00BFFAF7BF
:10553000E7FE009000BF00BF3548046800BF00BF11
:105540000098FAF7E1FE00BF00BF2BE0D4F8A000FE
:10555000059948430499B0FBF1F086B242F210700D
:10556000864200D90646A4F88C60B4F88E00B0429A
:1055700001DAA4F88E6001AB04F1AC02111D2046E3
:10558000FEF788F900BF00BFFAF7BAFE009000BF2F
:1055900000BFD4F8BC4000BF00BF0098FAF7B4FECB
:1055A00000BF00BF002CD1D11C480078012805D1D4
:1055B00000201A49087001A8FDF788FDFCF704FDDA
:1055C000A0EB080916480068484502D21448C0F804
:1055D000009001AA00213846FEF76AFA9BE6000017
:1055E000089600080401002020960008F80000201A
:1055F00000010020FC000020801A060000093D0088
:10560000005A62020084D717F4000020F600002040
:1056100010010020E0000020A4000020F200002083
:105620000801002010B58AB0044600201F49086018
:105630001F4908601F4908601F4908701F4908700A
:105640001F48006820B946F62B6020800AB010BDC4
:105650001C4800681C490968884203D246F62C6041
:105660002080F3E7194800783F2803D346F62A60E4
:105670002080EBE7032000210591CDE90704069186
:10568000084610490968124A12680D4B1B68CDE99B
:105690000132CDE903100D48007800230D4A0EA118
:1056A00000901248FDF7B8FD00BFCFE7F8000020DA
:1056B00000010020FC00002004010020F200002076
:1056C0000C960008149600081C9600080496000822
:1056D00010960008C952000875432F4F532D4949B1
:1056E000492053746174205461736B009C2900201D
:1056F00038B504460D4685B16B4602222946204640
:1057000000F09EFDBDF8000018B9032084F83600B3
:1057100006E0022084F8360002E0022084F8360019
:105720002046FFF723FC38BD0021C0F8B810094916
:10573000096819B90021C0F8BC1007E005490968DB
:10574000C0F8BC1003490968C1F8B80001490860F5
:105750007047000010010020D0F8B820D0F8BC102D
:105760004AB90D4B196011B10023C1F8B8300023BC
:10577000C0F8BC300FE029B90023C2F8BC30C0F833
:10578000B83008E0C2F8BC10C1F8B8200023C0F857
:10579000BC30C0F8B8307047100100200021044A26
:1057A0001160044A1180044A1160018070470000B2
:1057B00010010020140100200C01002070B50446E7
:1057C00000202060A0606060E06020616061A061F6
:1057D000E06129A0206200206062A062E062206493
:1057E000E065A4F86000002104F16400FFF744F8CC
:1057F000002044F8740F6060E060A0822061743C77
:10580000002506E0002104F17C0040F82510681C0A
:10581000C5B2002DF6D000203434206120676067C7
:10582000606084F85600E067A06720814FF0004078
:1058300060610020A061E06120626062A4F858000D
:10584000A4F85A00E0652066FCF7BEFB06466666D3
:105850000020A066C4F8800020706070A070402016
:10586000E0700020C4F88400C4F8880004A0C4F8E4
:105870008C00343C70BD00003F5461736B0000002D
:10588000200000002DE9FC4704460F46904699464B
:10589000DDE90A654FF0000A00BF00BF00BFFAF75C
:1058A0002FFD824600BF00BF76480078401C754936
:1058B000087000BF00BF5046FAF726FD00BF00BFCA
:1058C00000BF0CB9704804680020288094F83600A6
:1058D00008287DD2DFE800F004053E3F060740417E
:1058E00000BF00BF00BF4B464246394604F164008A
:1058F000CDE90065FEF7C8FF00BF00BF00BFFAF7A3
:10590000FFFC824600BF00BF5E480078401E5D4934
:10591000087008460078A0B95C480088002809DDB6
:1059200000BF00BF5046FAF7EFFC00BF00BFFFF713
:105930004BFB0DE000BF00BF5046FAF7E5FC00BF8F
:1059400006E000BF00BF5046FAF7DEFC00BF00BF14
:1059500000BF93E000BF00BF00BF94F834000228EE
:1059600021D143463A46214600200096FFF70AF926
:1059700000BF00BF00BFFAF7C3FC824600BF00BFF4
:1059800040480078401E3F49087000BF00BF5046A5
:10599000FAF7BAFC00BF00BF00BF09F4004090BB9B
:1059A000FDF788FA38E04B464246394604F1640078
:1059B000CDE90065FEF768FF00BF00BF00BFFAF742
:1059C0009FFC824600BF00BF2E480078401E00E0CA
:1059D00023E02C49087008460078A8B92B480088B5
:1059E000002809DD00BF00BF5046FAF78DFC00BF5C
:1059F00000BFFFF7E9FA0EE000BF00BF5046FAF71C
:105A000083FC00BF07E007E000BF00BF5046FAF785
:105A10007BFC00BF00BF00BF30E000BF00BF00BF85
:105A2000FAF76EFC824600BF00BF16480078401EA1
:105A30001449087008460078A0B914480088002866
:105A400009DD00BF00BF5046FAF75EFC00BF00BF93
:105A5000FFF7BAFA0DE000BF00BF5046FAF754FC5A
:105A600000BF06E000BF00BF5046FAF74DFC00BF84
:105A700000BF00BF46F62D60288000BF00BFBDE814
:105A8000FC870000E000002038010020A400002076
:105A900010B50446204600F0B1FC94F8360000F042
:105AA000040010B92046FFF7EBF910BD70B50446AD
:105AB0000D46002600BF00BFFAF722FC064600BFD5
:105AC00000BF0020288094F8360008287BD2DFE849
:105AD00000F0040506071243556700BF00BF00BF72
